:100000000EC028C027C026C025C024C023C022C0DF
:1000100021C020C01FC01EC01DC01CC01BC0112499
:100020001FBECFE5D2E0DEBFCDBF10E0A0E6B0E05E
:10003000E2E4F3E002C005900D92A436B107D9F7CF
:1000400020E0A4E6B0E001C01D92A736B207E1F7B8
:100050005FD175C1D5CF28B3982F9095292328BBA0
:1000600027B3922397BB662319F094B3892B84BBE3
:1000700080E887B983B1887F83B986B1806886B903
:10008000089518BA8FEF87BB61E084E0E4DF08953C
:10009000EF920F93DB01F901EE20C1F190E098306F
:1000A00008F06EC0282F30E0092E02C03595279544
:1000B0000A94E2F720FF0CC05C9121E030E0042EAE
:1000C00002C0220F331F0A94E2F7252B2C930CC099
:1000D0005C9121E030E0042E02C0220F331F0A940D
:1000E000E2F7209525232C93508121E030E0002E6B
:1000F00002C0220F331F0A94E2F7352F322B3083D0
:1001000030812095232320839F5FC9CF90E09830D2
:10011000B8F567E070E0691B7109282F30E002C074
:10012000359527956A95E2F720FF0CC05C9121E098
:1001300030E0042E02C0220F331F0A94E2F7252B71
:100140002C930CC05C9121E030E0042E02C0220F01
:10015000331F0A94E2F7209525232C93508121E048
:1001600030E0002E02C0220F331F0A94E2F7352F31
:10017000322B308330812095232320839F5FC7CF8C
:100180000F91EF900895382F6623D9F087B1832B14
:1001900087B920E040E050E0261758F42F5F96B171
:1001A000906496B93699FECF84B195B1480F591F26
:1001B000F3CF70E0CA01AFD097B13095392337B98A
:1001C00002C060E070E0CB010895BF92CF92DF9251
:1001D000EF92FF920F931F93CF93DF938C01EB016C
:1001E000B42E0F2EF7E0CF2EF02DD12CE12CF12CD8
:1001F000EC16FD06E8F500006AE081E0C4DF20911E
:100200006200309163008217930708F49C013093D9
:1002100063002093620020916000309161002817F4
:10022000390708F49C013093610020936000801727
:100230009107D0F0BB2051F081E090E00C2C02C07F
:10024000880F991F0A94E2F7D82A0EC027E030E001
:100250002C193109C7FC339581E090E002C0880F6A
:10026000991F2A95E2F7D82A8FEFE81AF80AC0CF2B
:10027000CA94CC200CF0BACF8091600090916100BC
:1002800020916200309163002817390740F4821BE7
:10029000930B9695879590936600809365008D2DBE
:1002A000DF91CF911F910F91FF90EF90DF90CF9052
:1002B000BF900895EF920F9388B3826088BB87B395
:1002C0008D7F87BB96B387B3826087BB88B38D7FF2
:1002D00088BB91FD1AC041E06AE070E08091650042
:1002E0009091660072DF8093640088B3877F88BB3B
:1002F000E12C04E028E330E040E068E370E0809126
:100300006400C6DE88B3886088BB0F91EF900895C3
:10031000B8DED0DFFECFAA1BBB1B51E107C0AA1F6E
:10032000BB1FA617B70710F0A61BB70B881F991F96
:100330005A95A9F780959095BC01CD010895F89440
:02034000FFCFED
:040342000100FFFFB8
:00000001FF
